{
  "_format": "hh-sol-artifact-1",
  "contractName": "TokenSale",
  "sourceName": "contracts/TokenSaleContract.sol",
  "abi": [
    {
      "inputs": [
        {
          "internalType": "contract TheBlockchainCoders",
          "name": "_tokenContract",
          "type": "address"
        },
        {
          "internalType": "uint256",
          "name": "_tokenPrice",
          "type": "uint256"
        }
      ],
      "stateMutability": "nonpayable",
      "type": "constructor"
    },
    {
      "anonymous": false,
      "inputs": [
        {
          "indexed": false,
          "internalType": "address",
          "name": "_buyer",
          "type": "address"
        },
        {
          "indexed": false,
          "internalType": "uint256",
          "name": "_amount",
          "type": "uint256"
        }
      ],
      "name": "Sell",
      "type": "event"
    },
    {
      "inputs": [
        {
          "internalType": "uint256",
          "name": "_numberOfToken",
          "type": "uint256"
        }
      ],
      "name": "buyToken",
      "outputs": [],
      "stateMutability": "payable",
      "type": "function"
    },
    {
      "inputs": [],
      "name": "endSale",
      "outputs": [],
      "stateMutability": "nonpayable",
      "type": "function"
    },
    {
      "inputs": [
        {
          "internalType": "uint256",
          "name": "x",
          "type": "uint256"
        },
        {
          "internalType": "uint256",
          "name": "y",
          "type": "uint256"
        }
      ],
      "name": "multiply",
      "outputs": [
        {
          "internalType": "uint256",
          "name": "z",
          "type": "uint256"
        }
      ],
      "stateMutability": "pure",
      "type": "function"
    },
    {
      "inputs": [],
      "name": "tokenContract",
      "outputs": [
        {
          "internalType": "contract TheBlockchainCoders",
          "name": "",
          "type": "address"
        }
      ],
      "stateMutability": "view",
      "type": "function"
    },
    {
      "inputs": [],
      "name": "tokenPrice",
      "outputs": [
        {
          "internalType": "uint256",
          "name": "",
          "type": "uint256"
        }
      ],
      "stateMutability": "view",
      "type": "function"
    },
    {
      "inputs": [],
      "name": "tokenSold",
      "outputs": [
        {
          "internalType": "uint256",
          "name": "",
          "type": "uint256"
        }
      ],
      "stateMutability": "view",
      "type": "function"
    }
  ],
  "bytecode": "0x608060405234801561001057600080fd5b50604051610aca380380610aca8339818101604052810190610032919061016c565b336000806101000a81548173ffffffffffffffffffffffffffffffffffffffff021916908373ffffffffffffffffffffffffffffffffffffffff16021790555081600160006101000a81548173ffffffffffffffffffffffffffffffffffffffff021916908373ffffffffffffffffffffffffffffffffffffffff1602179055508060028190555050506101ac565b600080fd5b600073ffffffffffffffffffffffffffffffffffffffff82169050919050565b60006100f1826100c6565b9050919050565b6000610103826100e6565b9050919050565b610113816100f8565b811461011e57600080fd5b50565b6000815190506101308161010a565b92915050565b6000819050919050565b61014981610136565b811461015457600080fd5b50565b60008151905061016681610140565b92915050565b60008060408385031215610183576101826100c1565b5b600061019185828601610121565b92505060206101a285828601610157565b9150509250929050565b61090f806101bb6000396000f3fe6080604052600436106100555760003560e01c8063165c4a161461005a5780632d296bf114610097578063380d831b146100b3578063519ee19e146100ca57806355a373d6146100f55780637ff9b59614610120575b600080fd5b34801561006657600080fd5b50610081600480360381019061007c91906105cb565b61014b565b60405161008e919061061a565b60405180910390f35b6100b160048036038101906100ac9190610635565b610182565b005b3480156100bf57600080fd5b506100c8610339565b005b3480156100d657600080fd5b506100df61055e565b6040516100ec919061061a565b60405180910390f35b34801561010157600080fd5b5061010a610564565b60405161011791906106e1565b60405180910390f35b34801561012c57600080fd5b5061013561058a565b604051610142919061061a565b60405180910390f35b600080821480610173575082828385610164919061072b565b925082610171919061079c565b145b61017c57600080fd5b92915050565b61018e8160025461014b565b341461019957600080fd5b80600160009054906101000a900473ffffffffffffffffffffffffffffffffffffffff1673ffffffffffffffffffffffffffffffffffffffff1663244e0c87306040518263ffffffff1660e01b81526004016101f591906107ee565b602060405180830381865afa158015610212573d6000803e3d6000fd5b505050506040513d601f19601f82011682018060405250810190610236919061081e565b101561024157600080fd5b600160009054906101000a900473ffffffffffffffffffffffffffffffffffffffff1673ffffffffffffffffffffffffffffffffffffffff1663a9059cbb33670de0b6b3a764000084610294919061072b565b6040518363ffffffff1660e01b81526004016102b192919061084b565b6020604051808303816000875af11580156102d0573d6000803e3d6000fd5b505050506040513d601f19601f820116820180604052508101906102f491906108ac565b6102fd57600080fd5b7f5e5e995ce3133561afceaa51a9a154d5db228cd7525d34df5185582c18d3df09338260405161032e92919061084b565b60405180910390a150565b60008054906101000a900473ffffffffffffffffffffffffffffffffffffffff1673ffffffffffffffffffffffffffffffffffffffff163373ffffffffffffffffffffffffffffffffffffffff161461039157600080fd5b600160009054906101000a900473ffffffffffffffffffffffffffffffffffffffff1673ffffffffffffffffffffffffffffffffffffffff1663a9059cbb60008054906101000a900473ffffffffffffffffffffffffffffffffffffffff16600160009054906101000a900473ffffffffffffffffffffffffffffffffffffffff1673ffffffffffffffffffffffffffffffffffffffff1663244e0c87306040518263ffffffff1660e01b815260040161044b91906107ee565b602060405180830381865afa158015610468573d6000803e3d6000fd5b505050506040513d601f19601f8201168201806040525081019061048c919061081e565b6040518363ffffffff1660e01b81526004016104a992919061084b565b6020604051808303816000875af11580156104c8573d6000803e3d6000fd5b505050506040513d601f19601f820116820180604052508101906104ec91906108ac565b6104f557600080fd5b60008054906101000a900473ffffffffffffffffffffffffffffffffffffffff1673ffffffffffffffffffffffffffffffffffffffff166108fc479081150290604051600060405180830381858888f1935050505015801561055b573d6000803e3d6000fd5b50565b60035481565b600160009054906101000a900473ffffffffffffffffffffffffffffffffffffffff1681565b60025481565b600080fd5b6000819050919050565b6105a881610595565b81146105b357600080fd5b50565b6000813590506105c58161059f565b92915050565b600080604083850312156105e2576105e1610590565b5b60006105f0858286016105b6565b9250506020610601858286016105b6565b9150509250929050565b61061481610595565b82525050565b600060208201905061062f600083018461060b565b92915050565b60006020828403121561064b5761064a610590565b5b6000610659848285016105b6565b91505092915050565b600073ffffffffffffffffffffffffffffffffffffffff82169050919050565b6000819050919050565b60006106a76106a261069d84610662565b610682565b610662565b9050919050565b60006106b98261068c565b9050919050565b60006106cb826106ae565b9050919050565b6106db816106c0565b82525050565b60006020820190506106f660008301846106d2565b92915050565b7f4e487b7100000000000000000000000000000000000000000000000000000000600052601160045260246000fd5b600061073682610595565b915061074183610595565b925082820261074f81610595565b91508282048414831517610766576107656106fc565b5b5092915050565b7f4e487b7100000000000000000000000000000000000000000000000000000000600052601260045260246000fd5b60006107a782610595565b91506107b283610595565b9250826107c2576107c161076d565b5b828204905092915050565b60006107d882610662565b9050919050565b6107e8816107cd565b82525050565b600060208201905061080360008301846107df565b92915050565b6000815190506108188161059f565b92915050565b60006020828403121561083457610833610590565b5b600061084284828501610809565b91505092915050565b600060408201905061086060008301856107df565b61086d602083018461060b565b9392505050565b60008115159050919050565b61088981610874565b811461089457600080fd5b50565b6000815190506108a681610880565b92915050565b6000602082840312156108c2576108c1610590565b5b60006108d084828501610897565b9150509291505056fea2646970667358221220a0c8dbbc06e1bafecfceab68436010e90be8ebdcb54bd7055384dbf3d58ddac264736f6c63430008120033",
  "linkReferences": {},
  "deployedLinkReferences": {}
}